:020000040000fa
:080000000002040000000000f2
:020000040000fa
:10000800f2070000f2070000f2070000f207000004
:10001800f2070000f2070000f2070000f2070000f4
:10002800f2070000f2070000f2070000f2070000e4
:10003800f2070000f2070000f2070000f2070000d4
:10004800f2070000f2070000f2070000f2070000c4
:10005800f2070000f2070000f2070000f2070000b4
:10006800f2070000f2070000f2070000f2070000a4
:10007800f2070000f2070000f2070000f207000094
:10008800f2070000f2070000f2070000f207000084
:10009800f2070000f2070000f2070000f207000074
:1000a800f2070000f2070000f2070000f207000064
:1000b800f2070000f2070000f2070000f207000054
:1000c800f2070000f2070000f2070000f207000044
:1000d800f2070000f2070000f2070000f207000034
:1000e800f2070000f2070000f2070000f207000024
:1000f800f2070000f2070000f2070000f207000014
:10010800f2070000f2070000f2070000f207000003
:10011800f2070000f2070000f2070000f2070000f3
:10012800f2070000f2070000f2070000f2070000e3
:10013800f2070000f2070000f2070000f2070000d3
:10014800f2070000f2070000f2070000f2070000c3
:10015800f2070000f2070000f2070000f2070000b3
:10016800f2070000f2070000f2070000f2070000a3
:10017800f2070000f2070000f2070000f207000093
:10018800f2070000f2070000f2070000f207000083
:10019800f2070000f2070000f2070000f207000073
:1001a800f2070000f2070000f2070000f207000063
:1001b800f2070000f2070000f20700009a020000b0
:1001c800c0020000e6020000f2070000f20700008b
:1001d800f2070000f2070000f2070000f207000033
:1001e800f207000004030000f2070000f207000015
:0801f800f2070000f20700000d
:020000040000fa
:10020800f2070000f2070000f2070000f207000002
:10021800f2070000f2070000f2070000f2070000f2
:10022800f2070000f2070000f2070000f2070000e2
:10023800f2070000f2070000f2070000f2070000d2
:10024800f2070000f2070000f2070000f2070000c2
:10025800f2070000f2070000f2070000f2070000b2
:10026800f2070000f2070000f2070000f2070000a2
:10027800f2070000f2070000f2070000f207000092
:10028800f2070000f2070000f2070000f207000082
:10029800f2070000f2070000f2070000f207000072
:1002a800f2070000f2070000f2070000f207000062
:1002b800f2070000f2070000f2070000f207000052
:1002c800f2070000f2070000f2070000f207000042
:1002d800f2070000f2070000f2070000f207000032
:1002e800f2070000f2070000f2070000f207000022
:1002f800f2070000f2070000f2070000f207000012
:10030800f2070000f2070000f2070000f207000001
:10031800f2070000f2070000f2070000f2070000f1
:10032800f2070000f2070000f2070000f2070000e1
:10033800f2070000f2070000f2070000f2070000d1
:10034800f2070000f2070000f2070000f2070000c1
:10035800f2070000f2070000f2070000f2070000b1
:10036800f2070000f2070000f2070000f2070000a1
:10037800f2070000f2070000f2070000f207000091
:10038800f2070000f2070000f2070000f207000081
:10039800f2070000f2070000f2070000f207000071
:1003a800f2070000f2070000f2070000f207000061
:1003b800f2070000f2070000f20700009a020000ae
:1003c800c0020000e6020000f2070000f207000089
:1003d800f2070000f2070000f2070000f207000031
:1003e800f207000004030000f2070000f207000013
:0803f800f2070000f20700000b
:020000040000fa
:100400008f8b20000eff20000e01880000000000ee
:10041000000020000000e000020032000001200087
:10042000200288000c00070080ee20000100200060
:1004300011000700000020000000e0000200320070
:100440000000020000000000c40e020000000000d6
:100450000040da000000fe004440a90000402000f7
:100460000000e0000300320000002000a00188002e
:100470004440a80000000600910188008000780038
:100480000000eb0015003700e280400032a0b4000d
:100490009101ba00e280400032a0b4009102ba009b
:1004a000e280400032a0b4000002eb00472bde00e7
:1004b000f507b200602ce10004003a000059eb009f
:1004c0008301e900fdff3e00040037006128e100e0
:1004d000010032000082eb00040007001101ba00a5
:1004e0000200e000e8ff3a00000006003159ba00bf
:1004f0008301e9000c0032002159ba008301e900b0
:10050000080032000400e00003003a00e2804000ee
:1005100032a0b400f5ff370011d9ba008301e90019
:10052000faff3a008100e800e180400032a0b40008
:1005300000000600849fbe00861f78000000fa00bd
:10054000d582a8002324a8002304a8004324a800df
:100550004304a8006324a8006304a80014c0b300e7
:100560000443780005802000864a780090e0a900c6
:100570000080fa004f0378004f02be0000400600e2
:10058000849fbe00861f78000000fa002324a80084
:100590002304a8004324a8004304a8006324a8005f
:1005a0006304a800d462a80014c0b3000443780018
:1005b00005802000864a78009100a9000080fa009a
:1005c0004f0378004f02be00004006000000fa0012
:1005d0002324a8002304a8004324a8004304a8005f
:1005e0006324a8006304a800d502a8002324a8005f
:1005f0002304a8004324a8004304a8009120a900d4
:100600000080fa00004006003600f800809fbe001f
:10061000829fbe00849fbe00869fbe000000fa003d
:10062000041980004522dd00d440880014198000a0
:100630004522dd00e4408800241980004522dd00c9
:10064000f4408800641980004522dd005441880090
:1006500034198000c522dd008445800004825200e8
:100660001441880074198000c522dd0054418000c7
:10067000048252000441880004418000e00f5200cf
:100680000300350004418000344088000300370037
:10069000044180000402ea003440880035408000b4
:1006a00024408000848f52000200340034408000d7
:1006b0002440880014418000e00f52000300350000
:1006c000144180004440880003003700144180003a
:1006d0000402ea004440880044408000840278001c
:1006e000e4428000848f52000200360044408000c3
:1006f000e4428800e44080006123b8009442800016
:10070000a54280000603420087834a00c48220007d
:10071000144278000482fb008402420024832000fb
:1007200004824200140278000500200004025300f5
:1007300085825b0094428800a54288009442800034
:10074000a54280004d2bdd004322de000402730031
:10075000c32ade000402780074418800f44080005f
:100760006123b800b4428000c54280000603420005
:1007700087834a00c4822000144278000482fb0070
:100780008402420024842000048242001402780083
:10079000050020000402530085825b00b4428800fb
:1007a000c5428800b4428000c54280004d2bdd0068
:1007b0004322de0004027300c32ade000402780034
:1007c00084418800c4822000144278000482fb0027
:1007d000e54080000403420024832000040243001b
:1007e000050a7800c4822000144278000482fb00cd
:1007f000f5408000040342002484200004024300ea
:10080000050a7800444080006123b90074438000e9
:10081000854380000603420087834a00c48220008b
:10082000144278000482fb0084024200e485200028
:1008300004824200140278000500200004025300e4
:1008400085825b0074438800854388007443800080
:10085000854380004d2bdd004322de00040273003f
:10086000c32ade0004027800d4428800c48220003b
:10087000144278008482fb00464080008583420059
:10088000e585200085824300860a78000442e8005e
:1008900004437800c5822000864a7800c482200084
:1008a00014427800e74f5200040036000042eb008b
:1008b00004437800c5822000864a78000441800005
:1008c00024418800f44480000402e800f4448800d5
:1008d000e44080006123b800444580005545800015
:1008e0000603420087834a00f44080000500200090
:1008f0000602420087824a00444588005545880028
:10090000d44080006123b8006445800075458000b4
:100910000602420087824a006445880075458800c7
:100920002489200014427800e14f52008c003200ec
:100930002489200014427800e04f520088003a00d9
:10094000a4032000b440880095408000b44080009b
:1009500004824200944088009540800074c32700c0
:10096000848f52002b003e0014c0b3000443780073
:10097000258b2000864a78000481200014427800ec
:10098000e04f520017003a00a5408000e4ff23002a
:10099000848f52000c003e00a44080004522de00ff
:1009a00084024200647f280004824200140278001e
:1009b000c4408800a5408000b4408000048242000a
:1009c000a440880064003700f4ff2300a44088009e
:1009d00014c0b3000443780005812000864a7800e3
:1009e0005d003700a44080004522de008402420002
:1009f000647f28000482420014027800c44088000a
:100a0000a5408000b440800004825200a4408800c9
:100a1000510037009540800084c32700848f520026
:100a20000f00360095408000e4ff2700848f5200bd
:100a30000b003e0024c0b30004437800258b200047
:100a4000864a78000002eb00a44088000042eb00d8
:100a50000443780005812000864a78003e00370074
:100a600095408000e4ff2700848f52003a00360052
:100a700034c0b30004437800258b2000864a7800f8
:100a80000481200014427800e04f520017003a0021
:100a9000a5408000e4ff2300848f52000c003e003c
:100aa000a44080004522de0084024200647f2800ca
:100ab0000482420014027800c4408800a5408000ef
:100ac000b440800004824200a44088001200370035
:100ad000f4ff2300a440880014c0b300044378004e
:100ae00005812000864a78000b003700a440800072
:100af0004522de0084024200647f28000482420016
:100b000014027800c4408800a5408000b4408000f2
:100b100004825200a440880095408000a4df2f008a
:100b2000848f52000c00360024c0b30004437800c8
:100b3000258b2000864a78000002eb00a440880044
:100b40000042eb000443780005812000864a7800cb
:100b50000002eb0094408800d6000700f500070073
:100b6000b41980004522dd0034418800a4198000ba
:100b70004522dd00444188009220a9000080fa004f
:100b80004f03be004f02be004f01be004f00be002b
:100b90003600f900004006000000fa00f54480002d
:100ba00004102000848f52000e003e00d402a800e2
:100bb000d5a2a9006324a8006304a900f44480001e
:100bc000040242000402e90084024200647f28001b
:100bd00004824200140278004322de00a44588000b
:100be00044003700f544800004102000848f520038
:100bf00011003600f544800004202000848f52004c
:100c00000d003e00f5448000e4ff2f0004aab90067
:100c100084027800044020000482420084024200e2
:100c2000647f280004824200140278004322de0020
:100c3000a44588002f003700f544800004202000e0
:100c4000848f520014003600f544800004302000e8
:100c5000848f520010003e00d402a900d5a2a80043
:100c60006324a9004304a800f544800004e02700a1
:100c700004824200040242000402e90084024200ad
:100c8000647f280004824200140278004322de00c0
:100c9000a445880017003700f54480000430200088
:100ca000848f520011003600f5448000044020007b
:100cb000848f52000d003e00f5448000e4ff2f00b9
:100cc00004aab90084027800048020000482420053
:100cd00084024200647f28000482420014027800eb
:100ce0004322de00a4458800020037000002eb002a
:100cf000f4448800a545800054092000848f5200e8
:100d000003003c0064092000a44588000600370069
:100d1000a5458000f4ff2000848f520002003400bb
:100d200084072100a4458800a44580003421880060
:100d3000a4458000342288000080fa0000000600ec
:100d40000000fa0024418000e00f52003b003d000b
:100d500004418000e00f52003800350044c0b30069
:100d600004437800258b2000864a78000060fe004e
:100d700014c0b3000443780025892000864a780017
:100d800014c0b3000443780045892000864a7800e7
:100d9000f4448000e44488000002eb00f44488003e
:100da00034892000144278000442e80004437800ab
:100db00035892000864a7800348920001442780062
:100dc000e14f520002003a000002eb001445880097
:100dd00015458000e4448000848242000445800080
:100de00004824200144588003489200014427800af
:100df000e24f5200280036000042eb000443780026
:100e000035892000864a78000002eb0014458800ee
:100e10006022b80064458800754588006022b800eb
:100e2000444588005545880014c0b3000443780049
:100e300065892000864a7800170037002441800029
:100e4000e00f52001400350004418000e00f520012
:100e500011003d0024c0b30004437800258b20001e
:100e6000864a78000060fe0014c0b3000443780096
:100e700025892000864a780014c0b3000443780016
:100e800055892000864a7800f4448000e4448800b4
:100e90000002eb00f44488000080fa000000060025
:100ea0000000fa00e4448000044588000080fa0055
:100eb000000006000000fa00248b20001442780095
:100ec000e14f520004003a00d402a800d5a2a900c4
:100ed0006304a90015003700248b20001442780019
:100ee000e24f520005003a006324a8006304a80002
:100ef000d5a2a800d402a8000c003700248b200043
:100f000014427800e34f520004003a00d5a2a80032
:100f1000d402a9006324a900040037006324a800b8
:100f20006304a800d5a2a800d402a8000080fa009b
:100f3000000006001000fa000002eb00040f780029
:100f40000002eb00140798000002eb002407980051
:100f50000002eb00340798000002eb004407980001
:100f60000002eb00540798006022b8006407980064
:100f700075079800c44080004322de00040f78000b
:100f8000540920009e027800848f520005003e0024
:100f9000640920003421880064092000342288007c
:100fa000040037001e027800342188001e027800f9
:100fb0003422880035218000342180004222de0066
:100fc000048252009421880035228000342280005f
:100fd0004222de0004825200942288000080fa003f
:0c0fe000000006000040da000000fe00e7
:020000040000fa
:100fec000000000065000000c90000002e01000098
:100ffc0092010000f70100005b020000c00200003b
:10100c002403000089030000ed03000052040000db
:10101c00b60400001b0500007f050000e30500007e
:10102c0048060000ac060000110700007507000020
:10103c00d90700003e080000a208000006090000c5
:10104c006a090000cf090000330a0000970a00006b
:10105c00fb0a00005f0b0000c40b0000280c000012
:10106c008c0c0000f00c0000540d0000b80d0000ba
:10107c001c0e0000800e0000e30e0000470f000065
:10108c00ab0f00000f10000072100000d610000013
:10109c003a1100009d1100000112000064120000c2
:1010ac00c81200002b1300008f130000f213000075
:1010bc0055140000b91400001c1500007f15000029
:1010cc00e215000045160000a81600000b170000e2
:1010dc006e170000d017000033180000961800009f
:1010ec00f91800005b190000be190000201a00005e
:1010fc00821a0000e51a0000471b0000a91b000023
:10110c000b1c00006d1c0000cf1c0000311d0000ea
:10111c00931d0000f51d0000571e0000b81e0000b6
:10112c001a1f00007b1f0000dd1f00003e20000086
:10113c009f2000000021000061210000c22100005e
:10114c002322000084220000e52200004623000038
:10115c00a62300000724000067240000c824000018
:10116c002825000088250000e825000048260000fe
:10117c00a82600000827000067270000c7270000ea
:10118c002628000086280000e528000044290000dd
:10119c00a3290000022a0000612a0000c02a0000d6
:1011ac001f2b00007d2b0000dc2b00003a2c0000d4
:1011bc00992c0000f72c0000552d0000b32d0000d9
:1011cc00112e00006e2e0000cc2e00002a2f0000e5
:1011dc00872f0000e42f0000413000009e300000fb
:1011ec00fb30000058310000b53100001132000016
:1011fc006e320000ca320000263300008333000038
:10120c00df3300003a34000096340000f234000062
:10121c004d350000a8350000043600005f36000094
:10122c00ba360000153700006f370000ca370000cf
:10123c00243800007e380000d93800003339000013
:10124c008c390000e6390000403a0000993a000061
:10125c00f23a00004c3b0000a53b0000fe3b0000b6
:10126c00563c0000af3c0000073d0000603d000014
:10127c00b83d0000103e0000683e0000bf3e00007c
:10128c00173f00006e3f0000c53f00001d400000ee
:10129c0073400000ca40000021410000774100006b
:1012ac00ce410000244200007a420000d0420000ef
:1012bc00254300007b430000d04300002544000080
:1012cc007a440000cf44000024450000784500001b
:1012dc00cd4500002146000075460000c9460000bf
:1012ec001c47000070470000c34700001648000070
:1012fc0069480000bc4800000f490000614900002b
:10130c00b4490000064a0000584a0000a94a0000ef
:10131c00fb4a00004c4b00009d4b0000ee4b0000c4
:10132c003f4c0000904c0000e04c0000314d0000a0
:10133c00814d0000d14d0000204e0000704e000089
:10134c00bf4e00000e4f00005d4f0000ac4f000080
:10135c00fb4f00004950000097500000e550000082
:10136c003351000081510000ce5100001b5200008f
:10137c0068520000b5520000025300004e530000aa
:10138c009b530000e7530000325400007e540000d1
:10139c00c95400001555000060550000aa55000006
:1013ac00f55500003f5600008a560000d356000049
:1013bc001d57000067570000b0570000f957000098
:1013cc00425800008b580000d35800001c590000f4
:1013dc0064590000ac590000f35900003b5a00005e
:1013ec00825a0000c95a00000f5b0000565b0000d7
:1013fc009c5b0000e25b0000285c00006e5c00005f
:10140c00b35c0000f95c00003e5d0000825d0000f2
:10141c00c75d00000b5e00004f5e0000935e000095
:10142c00d75e00001a5f00005d5f0000a05f000047
:10143c00e35f00002560000068600000aa60000007
:10144c00eb6000002d6100006e610000af610000d8
:10145c00f06100003162000071620000b1620000b6
:10146c00f16200003163000070630000af630000a4
:10147c00ee6300002d6400006c640000aa640000a0
:10148c00e86400002565000063650000a0650000ad
:10149c00dd6500001a6600005666000093660000c9
:1014ac00cf6600000a6700004667000081670000f5
:1014bc00bc670000f7670000326800006c68000031
:1014cc00a6680000e068000019690000526900007d
:1014dc008b690000c4690000fd690000356a0000da
:1014ec006d6a0000a46a0000dc6a0000136b000047
:1014fc004a6b0000816b0000b76b0000ed6b0000c5
:10150c00236c0000596c00008e6c0000c36c000052
:10151c00f86c00002d6d0000616d0000956d0000f1
:10152c00c96d0000fd6d0000306e0000636e0000a0
:10153c00966e0000c86e0000fb6e00002c6f000061
:10154c005e6f0000906f0000c16f0000f26f000032
:10155c00227000005370000083700000b270000015
:10156c00e270000011710000407100006f7100000a
:10157c009d710000cb710000f97100002772000012
:10158c005472000081720000ae720000db72000029
:10159c0007730000337300005e7300008a73000051
:1015ac00b5730000e07300000a740000357400008d
:1015bc005f74000088740000b2740000db740000db
:1015cc00047500002d750000557500007d75000038
:1015dc00a5750000cc750000f37500001a760000ac
:1015ec0041760000677600008d760000b37600002f
:1015fc00d8760000fe7600002277000047770000c6
:10160c006b7700008f770000b3770000d77700006e
:10161c00fa7700001d7800003f7800006278000027
:10162c0084780000a5780000c7780000e8780000f6
:10163c0009790000297900004a7900006a790000d4
:10164c0089790000a9790000c8790000e6790000ca
:10165c00057a0000237a0000417a00005f7a0000ce
:10166c007c7a0000997a0000b67a0000d27a0000e9
:10167c00ee7a00000a7b0000267b0000417b000014
:10168c005c7b0000777b0000917b0000ab7b000053
:10169c00c57b0000de7b0000f87b0000107c0000a6
:1016ac00297c0000417c0000597c0000717c00000a
:1016bc00887c00009f7c0000b67c0000cd7c000084
:1016cc00e37c0000f97c00000e7d0000247d00000e
:1016dc00397d00004d7d0000627d0000767d0000ac
:1016ec00897d00009d7d0000b07d0000c37d000061
:1016fc00d57d0000e87d0000fa7d00000b7e000027
:10170c001d7e00002e7e00003e7e00004f7e0000fd
:10171c005f7e00006f7e00007e7e00008d7e0000ec
:10172c009c7e0000ab7e0000b97e0000c77e0000ee
:10173c00d57e0000e27e0000ef7e0000fc7e000003
:10174c00097f0000157f0000217f00002c7f000026
:10175c00377f0000427f00004d7f0000577f000064
:10176c00617f00006b7f0000747f00007d7f0000b4
:10177c00867f00008f7f0000977f00009f7f000016
:10178c00a67f0000ad7f0000b47f0000bb7f00008f
:10179c00c17f0000c77f0000cd7f0000d27f00001a
:1017ac00d87f0000dc7f0000e17f0000e57f0000b7
:1017bc00e97f0000ec7f0000f07f0000f37f000069
:1017cc00f57f0000f77f0000f97f0000fb7f000031
:1017dc00fd7f0000fe7f0000fe7f0000ff7f000009
:020000040000fa
:1017ec000000fa0094022000343a8800243a800069
:1017fc000460a1000470a100243a8800253a8000fe
:10180c0004fe2f0004826200243a88001600200097
:10181c0084072000a509200037742000844b780031
:10182c00854b7800864b780016002000640420005d
:10183c007505200027742000844b7800854b7800b8
:10184c00864b780000000000153a80000400270049
:10185c008482620004002100848f5200faff3a0057
:10186c0000000000153a800004022000048262008f
:10187c00e00f5200fbff320050c7a80051a7a80090
:10188c00843a80000480a0000490a00004a0a00072
:10189c00843a880051e7a80000000000853a8000d7
:1018ac000400240004826200e00f5200fbff3200af
:1018bc000080fa00000006000000fa0014208000ee
:1018cc000400a1000410a1000420a1001420880031
:1018dc00041e240024208800040f220044228800c7
:1018ec00640920006421880024032000542188000e
:1018fc0064092000642288002403200054228800fc
:10190c000002eb00342188000002eb003422880036
:10191c002124a9004124a9002004a8004004a80007
:10192c00042180000460a1000470a100042188003f
:10193c00042180000460a1000470a100042188002f
:10194c001421800004a0a10004b0a100142188007f
:10195c001422800004a0a10004b0a100142288006d
:10196c002384a8004384a80023e4a80023c4a8006f
:10197c0043e4a80043c4a800142180000460a10023
:10198c000470a100142188002324a8002304a800bb
:10199c00142280000460a1000470a10014228800ad
:1019ac004324a8004304a800044f2c00d421880031
:1019bc00044f2c00d4228800242180000400a100b4
:1019cc000410a100242188002504a80025218000f2
:1019dc00f43f28008482620004402000050272005b
:1019ec00242188002524a900242280000400a100c1
:1019fc000410a100242288004504a80025228000a0
:101a0c00f43f2800848262000480200005027200ea
:101a1c00242288004524a900a421800004c0a10030
:101a2c0004d0a10004e0a10004f0a100a4218800ce
:101a3c00a521800004fc2f0004826200a4218800f0
:101a4c00a422800004c0a10004d0a10004e0a100e5
:101a5c0004f0a100a4228800a522800004fc2f0021
:101a6c0004826200a4228800840020009421880053
:101a7c0084002000942288006124a800840721009f
:101a8c004423880084072100842388004423800099
:101a9c000402d10034238800842380000402d10086
:101aac0074238800042380000460a0000470a0004c
:101abc00042388001423800004a0a00004b0a1001b
:101acc001423880063e4a80063c4a80014238000d6
:101adc000460a1000470a100142388006324a800f2
:101aec006304a800242380000400a0000410a000bc
:101afc00242388000080fa00000006000000fa0091
:101b0c000183a8000103a90000e3a90000c3a900f8
:101b1c0000a3a9000083a800041880000400a10001
:101b2c000410a1000420a000041888000002eb009f
:101b3c00341888000203a9000223a9000243a9005b
:101b4c000263a90002c3a90002e3a9000343a90090
:101b5c000363a9005518800004fe2f000482620064
:101b6c000420a0005418880055188000f40f2e0093
:101b7c008482620004502000050272005418880010
:101b8c0065188000f40f2e0084826200045020003f
:101b9c00050272006418880075188000f40f2e007e
:101bac0084826200045020000502720074188800c0
:101bbc00e40680000440a1000450a0000460a000d2
:101bcc00e40688009220a900a220a8000080fa0058
:101bdc00000006000000fa00e535800004fc2f0030
:101bec00848262000402200005027200e435880041
:101bfc00e5358000f40f2c00848262000410220072
:101c0c0005027200e43588008537800004fc2f0043
:101c1c0084826200840220000502720084378800ee
:101c2c0085378000f40f2c0084826200049022001f
:101c3c000502720084378800d182a900d582a900e0
:101c4c00d062a900d462a900d102a900d502a900d2
:101c5c00d002a900d402a900d1a2a900d5a2a90042
:101c6c00c462a900c482a900cd62a900cd82a900da
:101c7c00cda2a900cdc2a9000080fa000000060088
:101c8c000000fa0044a5a9004405a800242a8000fd
:101c9c000460a1000470a000242a8800352a80006a
:101cac0004c02f0084826200c42b20000502720045
:101cbc00342a880045e5a800b406800004c0a000c2
:101ccc0004d0a00004e0a000b406880090e0a900b5
:101cdc00a0e0a80048a5a9004805a800442a800057
:101cec000460a0000470a100442a8800552a8000da
:101cfc0004c02f0084826200c42b200005027200f5
:101d0c00542a880049e5a800c40680000400a000fd
:101d1c000410a0000420a000c40688009100a900b3
:101d2c00a100a8004ca5a9004c05a800642a8000bd
:101d3c000460a1000470a000642a8800752a800049
:101d4c0004c02f0084826200843e200005027200d1
:101d5c00742a88004de5a800c40680000440a00049
:101d6c000450a0000460a000c40688009120a900c3
:101d7c00a120a8000080fa00000006000000fa0074
:101d8c0097fe070093ff07005cff070001e3a80024
:101d9c00bbff0700c8fe070001e4a8002324a9002c
:101dac002304a9004324a9004304a900d5a2a80038
:101dbc00d402a80000000000000000000000000099
:041dcc00fcff3700e1
:020000040000fa
:101dd000b60800000200000000000000000800003b
:101de000b200000000000000b20800000400000083
:101df0000200000004009600000000000000000047
:020000040000fa
:0200000401f009
:04000c00f8ff0000f9
:020000040000fa
:0200000401f009
:040010005bff000092
:020000040000fa
:0200000401f009
:0400140064ff000085
:020000040000fa
:0200000401f009
:04001800ffff0000e6
:020000040000fa
:0200000401f009
:04001c00deff000003
:00000001FF
