:020000040000fa
:080000000002040000000000f2
:020000040000fa
:100400002f8f20000eff20000e018800000000004a
:100410000c0007008091210001002000110007005e
:10042000000020000000e000020032000000020096
:1004300000000000cc190200000000000040da00bb
:100440000000fe004440a900004020000000e00041
:100450000300320000002000a00188004440a800f2
:100460000000060091018800800078000000eb0089
:1004700015003700e280400032a0b4009101ba00bc
:10048000e280400032a0b4009102ba00e280400055
:1004900032a0b4000002eb00472bde00f507b200eb
:1004a000602ce10004003a000059eb008301e900f0
:1004b000fdff3e00040037006128e100010032002a
:1004c0000082eb00040007001101ba000200e00006
:1004d000e8ff3a00000006003159ba008301e90044
:1004e0000c0032002159ba008301e90008003200f3
:1004f0000400e00003003a00e280400032a0b400b3
:10050000f5ff370011d9ba008301e900faff3a007c
:100510008100e800e180400032a0b4000000060045
:10052000801f78000000fa0000c8bf00e14f5000b3
:1005300005003a00b2c8bf00e14f500002003a0087
:1005400001e4a90040a7a90010c0b30000e8b7006b
:1005500050c0b300ece8b70090e0a9000080fa00ba
:100560004f00780000400600801f78000000fa006d
:1005700000c8bf00e14f500005003a00b2c8bf00fc
:10058000e14f500002003a0001e4a90040a7a90091
:1005900010c0b30000e8b70050c0b300ece8b700eb
:1005a0009100a9000080fa004f007800004006008a
:1005b000801f78000000fa002324a8002304a8006c
:1005c0004324a8004304a80000c8bf00e14f500026
:1005d00005003a00b2c8bf00e14f500002003a00e7
:1005e00001e4a90040a7a900ecc8bf00e04f5000fb
:1005f00004003a0010c0b30000e8b70080c0b300a8
:10060000ece8b7009120a9000080fa004f007800c4
:10061000004006003600f800809fbe00829fbe00aa
:10062000849fbe00869fbe000000fa000019800073
:100630004500dd00d0408800101980004500dd0035
:10064000e0408800201980004500dd00f04088006f
:10065000601980004500dd0050418800301980009d
:10066000c500dd0070468000008050001041880009
:1006700070198000c500dd005041800000805000ee
:100680000041880000418000e00f50000300350069
:1006900000418000304088000300370000418000a6
:1006a0000000ea0030408800314080002040800097
:1006b000808f5000020034003040800020408800cd
:1006c00010418000e00f5000030035001041800011
:1006d0004040880003003700104180000000ea001d
:1006e000404088004040800080007800e042800068
:1006f000808f50000200360040408000e0428800b9
:10070000e04080006101b80090428000a14280007a
:1007100002014000838148002cc8bf000080fb001c
:1007200080004000208320000080400010007800fe
:100730000100200000005100818059009042880093
:10074000a142880090428000a14280004d09dd0056
:100750004300de0000007100c308de0000007800e6
:1007600070418800f04080006101b800b042800014
:10077000c142800002014000838148002cc8bf00b4
:100780000080fb00800040002084200000804000aa
:100790001000780001002000000051008180590005
:1007a000b0428800c1428800b0428000c14280004f
:1007b0004d09dd004300de0000007100c308de00cb
:1007c00000007800804188002cc8bf000080fb003a
:1007d000e140800000014000208320000000410033
:1007e000010878002cc8bf000080fb00f1408000a9
:1007f0000001400020842000000041000108780032
:10080000404080006101b900704380008143800056
:1008100002014000838148002cc8bf000080fb001b
:1008200080004000e085200000804000100078003b
:1008300001002000000051008180590070438800b1
:100840008143880070438000814380004d09dd00b2
:100850004300de0000007100c308de0000007800e5
:10086000d04288002cc8bf008080fb00424080003e
:1008700081814000e185200081804100820878006c
:100880000040e8002ce8b7002cc8bf00e74f50003c
:10089000020036000040eb002ce8b70071418000f8
:1008a00080142700808f500004003e0081418000aa
:1008b00080142700808f500005003600ecc8bf0070
:1008c000e04f500002003a0050c0b300ece8b7001f
:1008d000d142800010468000808f50001200360008
:1008e000eac8bf00e14f50000f003a0000c8bf0047
:1008f000e14f500005003a00b2c8bf00e14f500080
:1009000002003a0001e4a90040a7a900ecc8bf001a
:10091000e04f500004003a0010c0b30000e8b700f8
:1009200040c0b300ece8b70092c8bf00e04f5000f1
:1009300005003a00f1448000800c2000808f5000b8
:10094000010036003e010700004180002041880080
:10095000f04480000000e800f0448800e04080009f
:100960006101b8004045800051458000020140000f
:1009700083814800f0408000010020000200400018
:10098000838048004045880051458800d040800061
:100990006101b800604580007145800002004000a0
:1009a00083804800604588007145880092c8bf0078
:1009b000e14f5000ae003a000040eb0092e8b70073
:1009c00098c8bf000040e80098e8b700eac8bf0038
:1009d000e04f5000020032000040eb0098e8b70002
:1009e0006c010700e044800000017800f0ff270060
:1009f00001002000811f7800110009004208d80082
:100a0000cf007800b040880020408000504088002f
:100a1000e0428000a04388000000eb0020408800f6
:100a20000000eb00e042880051408000805e23001f
:100a3000808f500003003400c8c8bf00c4e8b7006e
:100a40000900370051408000f0ed2200808f5000f7
:100a500003003c00c7c8bf00c4e8b700020037006d
:100a6000c6c8bf00c4e8b70050408000811a260005
:100a70000180b9004209dd004e00de000000710077
:100a8000ce88de000000780001ab29000080500015
:100a900020458800e1468000b07d2300808f500013
:100aa00014003e00eac8bf00e14f500011003a00b8
:100ab000e0468000c17d2300008050003045880062
:100ac00030458000b17324000180b9004209dd0087
:100ad0004e00de0000007100ce88de0000007800cd
:100ae000304588002145800030458000008050005e
:100af00020458800a043800080007800504080009e
:100b00000180b9004209dd004e00de0000007100e6
:100b1000ce88de0000007800b0438800b04380003b
:100b20006101b8005044800061448000020140002f
:100b30008381480078c8bf000080fb00800040002f
:100b4000a0872000008040001000780001002000f5
:100b500000005100818059005044880061448800a1
:100b600050448000614480004d09dd004300de00f8
:100b700000007100c308de00000078009043880088
:100b800078c8bf008080fb00b243800081814000b4
:100b9000a187200081804100820878000040e800a1
:100ba00078e8b70078c8bf00e74f50000200360071
:100bb0000040eb0078e8b70091438000006420001b
:100bc000808f500015003e008ec8bf00e04f5000df
:100bd00012003a00804480000000e8008044880051
:100be00081448000b0a22100808f50001a0036009e
:100bf00010c0b3008ee8b7000000eb00804488000e
:100c000010478000000040008000780010478000fe
:100c100000804000104788000f0037008ec8bf00da
:100c2000e14f50000a003a009143800000af2000dd
:100c3000808f500006003600104780000000d10071
:100c4000104788000040eb008ee8b7000200370034
:100c50000000eb00804488000000eb00a04088000a
:100c60000000eb00904088000040eb0011e8b70066
:100c700011c8bf00e04f500015003a00a1408000ad
:100c8000e0ff2300808f50000c003e00a040800059
:100c90004500de0080004000c020290000804000a8
:100ca00010007800c0408800a1408000b040800063
:100cb00000804000a040880010003700f0ff2300b3
:100cc000a040880010c0b30011e8b7000b00370047
:100cd000a04080004500de0080004000c0202900c8
:100ce0000080400010007800c0408800a1408000d3
:100cf000b040800000805000a040880091408000fb
:100d0000b04080000080400090408800c5c8bf000f
:100d1000e14f500001003a00d1000700eac8bf00cf
:100d2000e14f500038003a0010c8bf00e14f5000ba
:100d30000300320010c8bf00e34f500015003a0016
:100d40008ec8bf00e04f500006003a002324a900df
:100d50004324a9002304a9004304a9006501070056
:100d6000290037008ec8bf00e14f500023003a0031
:100d700093c8bf00e04f500022003a002324a9008e
:100d80004324a9002304a9004304a9005901070032
:100d90001d0037002324a8002304a8004324a80032
:100da0004304a8008146800000212000808f50006d
:100db0000d003a0040892f00f1ff2f0060408800ad
:100dc0007140880051408000805e2300808f500079
:100dd0000d003400c0632f00f1ff2f006040880039
:100de0007140880008003700c0e02f00f1ff2f009d
:100df0006040880071408800030037000000000058
:100e00000100370000000000b01980004500dd003f
:100e100030418800a01980004500dd004041880075
:100e20009220a9000080fa004f03be004f02be00ce
:100e30004f01be004f00be003600f9000040060022
:100e40000000fa0020418000e00f50003e003d000d
:100e500000418000e00f50003b00350040c0b3006f
:100e600010e8b7000060fe0010c0b30092e8b700c1
:100e700010c0b30094e8b700f0448000e04488005c
:100e80000000eb00f044880093c8bf000040e80079
:100e900093e8b70093c8bf00e14f500002003a004a
:100ea0000000eb001045880011458000e044800000
:100eb0008080400000458000008040001045880090
:100ec00093c8bf00e24f5000300036000040eb00f6
:100ed00093e8b7001045800000017800604580006d
:100ee00071458000811f7800110009004208d80078
:100ef000cf007800e04688001045800000017800af
:100f00004045800051458000811f78001100090094
:100f10004208d800cf007800f04688000000eb00bf
:100f2000104588006000b800604588007145880061
:100f30006000b800404588005145880010c0b300eb
:100f400096e8b7001100370020418000e00f500004
:100f50000e00350000418000e00f50000b003d0006
:100f600020c0b30010e8b7000060fe0010c0b3005e
:100f700092e8b70010c0b30095e8b700f0448000d5
:100f8000e04488000000eb00f04488000080fa0094
:100f9000000006000000fa00e14480008046800066
:100fa000808f50001b003600e14480009046800096
:100fb000808f50001700310001c8bf00e14f500082
:100fc00011003a0080468000e3004000e0448000c9
:100fd000808f50000c00310090468000e3005000ec
:100fe000e0448000808f500007003600ecc8bf004e
:100ff000e24f500002003a000040eb00ece8b7007e
:101000000040eb0001e8b7000040eb0002e8b70049
:101010000f00370002c8bf000040e80002e8b70038
:1010200002c8bf00e14f50000900360010c0b300f5
:1010300001e8b70020c0b30002e8b700ecc8bf0069
:10104000e04f500002003a0020c0b300ece8b700c7
:10105000e0448000004588000080fa00000006009f
:101060000000fa0010c8bf000080fb006101b90059
:101070000080eb008080eb0002004000838048008d
:101080003200200003002000820f5000838f5800a0
:101090007c003e00006001000300370011003700b3
:1010a000390037004700370091408000e0ff2300ff
:1010b000808f500004003e00501680004f00de007c
:1010c000004078009ae8b7009140800080c3270074
:1010d000808f50006400360020c0b30010e8b700d5
:1010e0006800370051168000000028000080600072
:1010f000e00f500021003a0095c8bf00e14f5000ba
:101100001e003a0097c8bf000040e80097e8b7000b
:101110007189200091407800c4c8bf0080cf500082
:1011200053003900501680004f00de000040780068
:10113000804078009ac8bf0080cf500008003a0075
:10114000eac8bf00e14f500005003a00ecc8bf00fc
:10115000e04f500002003a00b0c0b300ece8b70026
:101160000040eb0097e8b7000040eb0095e8b700bf
:1011700030c0b30010e8b700420037000040eb0079
:1011800097e8b7003f00370091408000e0ff230060
:10119000808f500004003e00501680004f00de009b
:1011a000004078009ae8b7009140800080c3270093
:1011b000808f50003000360040c0b30010e8b70008
:1011c00030003700511680000000280000806000c9
:1011d000e00f50002100320094c8bf00e14f5000e2
:1011e0001e003a0097c8bf000040e80097e8b7002b
:1011f0007189200091407800c4c8bf0080cf5000a2
:101200001f003900501680004f00de0000407800bb
:10121000804078009ac8bf0080cf500008003a0094
:10122000eac8bf00e14f500005003a00ecc8bf001b
:10123000e04f500002003a00b0c0b300ece8b70045
:101240000040eb0097e8b7000040eb0094e8b700df
:1012500010c0b30010e8b7000a0037000040eb00f0
:1012600097e8b700070037000000000005003700ce
:1012700000000000030037000000000001003700fc
:101280000000000010c8bf00e14f500004003a0009
:10129000d402a800d5a2a9006304a9001300370056
:1012a00010c8bf00e24f500005003a006324a800b8
:1012b0006304a800d5a2a800d402a8000b00370040
:1012c00010c8bf00e34f500004003a00d5a2a800a8
:1012d000d402a9006324a900040037006324a800f5
:1012e0006304a800d5a2a800d402a8000080fa00d8
:1012f000000006001000fa000000eb002007980034
:101300000000eb00300798000000eb004007980059
:101310000000eb00500798000000eb006007980009
:101320000000eb00700798006000b800008fbe005e
:101330001047800080007800c04080000180b90024
:101340004109dd004f00de0000007100cf88de00a3
:10135000500798004040800000004000de009000f0
:1013600000805000600798006e009000a17021007e
:101370000180b900410add004f00de00000072006c
:10138000cf88de00700798006e009000f1282000e2
:101390000180b900cf89de00410add004f01de0087
:1013a0000201720060408000714080000200400035
:1013b000838048006040880071408800624080005f
:1013c00073408000f0ff270001002000800f5100d3
:1013d000818f590005003400f0ff27000100200034
:1013e00060408800714088000b0037006240800038
:1013f0007340800010002800f1ff2f00800f510083
:10140000818f590004003d0010002800f1ff2f00db
:1014100060408800714088007e0090006101b90042
:101420006040800071408000001f4100019749002a
:1014300051408000c04080000180b9004088de003b
:10144000cf80de0030079800d04080008000780018
:10145000b01e27000180b9004188de00cf80de0089
:10146000800078003e009000008040004007980017
:101470004e0290003e0090006101b8004d18dd0062
:10148000c310de00810070004d10dd00811f780068
:10149000110009004408d800cf00780040079800e8
:1014a0004e0090004200dd00010020001e0f4000b1
:1014b0005e974800f0ff2500010020001e01be00dd
:1014c000800f5100818f590004003400f0ff250087
:1014d00001002000008fbe00060037001e00be0085
:1014e000e00f5000e08f580002003d006000b8009f
:1014f000008fbe001e007800011e24000180b9008c
:101500004109dd004f00de0000007100cf88de00e1
:1015100020079800ae00900050092000808f5000f6
:1015200005003e006009200030218800600920008d
:101530003022880009003700404780008000780092
:101540002e0090000080400030218800404780003d
:10155000ae009000008050003022880031218000d1
:10156000302180004200de00008050009021880081
:1015700031228000302280004200de0000805000d6
:10158000902288000080fa0000000600809fbe00c4
:10159000821f78000000fa00018f2000914078003f
:1015a000b0c8bf0080cf500011003100a0168000ed
:1015b0004c00de00614060000004a2006140600059
:1015c0000080fb00610060004c00dd00a21680007e
:1015d000f1ff2e008100610000807000a0168800dd
:1015e000f0c8bf000040e800f0e8b7000d00370089
:1015f000f0c8bf008080fb00b0c8bf000080fb00c7
:1016000063004000808f500004003d00f0c8bf0020
:101610000040e800f0e8b700020037000040eb00af
:10162000f0e8b700eac8bf00e14f500003003a00fd
:10163000f1c8bf000040e800f1e8b700ecc8bf0007
:10164000e04f50000b003a00118f200091407800cd
:1016500070ccb30080cf50000600360013e1a90023
:101660000040eb00f0e8b7000040eb00f1e8b70005
:10167000d582a9000000eb00500888008500a90071
:101680000080fa004f0178004f00be0000400600c5
:101690003600f800809fbe00829fbe00849fbe007f
:1016a000869fbe000000fa0051408000009d23008c
:1016b000808f500011003600b6c8bf00e04f5000c8
:1016c0000e003a00bac8bf000040e800bae8b70010
:1016d000bac8bf00e14f50001b003600ecc8bf0085
:1016e000e04f500017003a0030c0b300ece8b700fc
:1016f00010c0b300b6e8b7001300370051408000b7
:10170000f0832300808f50000b003e00b6c8bf005e
:10171000e14f500008003a00ecc8bf00e34f500012
:1017200002003a000040eb00ece8b7000040eb009c
:10173000b6e8b700040037000040eb00bae8b70095
:1017400001003700000000005140800070c82200f6
:10175000808f500013003e00b7c8bf00e04f50001c
:1017600010003a00b9c8bf000040e800b9e8b7006f
:10177000b9c8bf00e14f50001b003600ecc8bf00e5
:10178000e04f500004003a0030c0b300ece8b7006e
:1017900010c0b300b7e8b70020c0b300b9e8b70085
:1017a000110037005140800040db2200808f500044
:1017b0000b003600b7c8bf00e14f500008003a00e8
:1017c000ecc8bf00e34f500002003a000040eb00bd
:1017d000ece8b7000040eb00b7e8b70002003700c4
:1017e0000040eb00b9e8b70096c8bf00e14f5000d9
:1017f00061003a00e1468000206a2700808f500097
:101800000b003600b3c8bf00e04f500008003a009c
:10181000ecc8bf00e04f500013003a0010c0b30006
:10182000ece8b70010c0b300b3e8b7000e00370013
:10183000e1468000300e2700808f50000a003e00f5
:10184000b3c8bf00e14f500007003a00ecc8bf002a
:10185000e14f500002003a000040eb00ece8b70016
:101860000040eb00b3e8b700e1468000409126005d
:10187000808f500014003600eac8bf00e14f5000ce
:1018800011003a00004680000000e8000046880091
:1018900001468000803e2000808f50000e00360000
:1018a00010c0b300b3e8b7000000eb0000468800aa
:1018b000ecc8bf00e04f500006003a0010c0b30073
:1018c000ece8b700040037000000eb000046880099
:1018d0000100370000000000e146800030a922002e
:1018e000808f500013003e00b4c8bf00e04f50008e
:1018f00010003a00b8c8bf000040e800b8e8b700e0
:10190000b8c8bf00e94f50001b003600ecc8bf004c
:10191000e04f500004003a0010c0b300ece8b700fc
:1019200010c0b300b4e8b700a0c0b300b8e8b70077
:1019300011003700e1468000c0002300808f500076
:101940000b003600b4c8bf00e14f500008003a0059
:10195000ecc8bf00e14f500002003a000040eb002d
:10196000ece8b7000040eb00b4e8b7000200370035
:101970000040eb00b8e8b70041418000f0062300ca
:10198000808f500015003600b5c8bf00e04f5000f2
:1019900012003a00bbc8bf000040e800bbe8b70037
:1019a000b18b20009140780040c6b30080cf50003a
:1019b0001d00360040c6b300bbe8b700ecc8bf004e
:1019c000e04f500017003a0060c0b300ece8b700e9
:1019d00010c0b300b5e8b7001300370041418000e4
:1019e00080c82200808f50000b003e00b5c8bf00a9
:1019f000e14f500008003a000040eb00b5e8b700a6
:101a0000ecc8bf00e64f500007003a000040eb0072
:101a1000ece8b700040037000040eb00bbe8b7007b
:101a2000010037000000000031418000e082270003
:101a3000808f500004003e0031418000b0e8260055
:101a4000808f50000e003e00bcc8bf000040e80080
:101a5000bce8b700bcc8bf00ea4f50001100360018
:101a6000a0c0b300bce8b700ecc8bf00e04f500016
:101a70000b003a0070c0b300ece8b7000900370073
:101a80000040eb00bce8b700ecc8bf00e74f5000d7
:101a900004003a000040eb00ece8b700010037001a
:101aa0000000000051418000f0d72300808f5000db
:101ab0000400360051418000002a2400808f50002d
:101ac0000e003600bdc8bf000040e800bde8b7000a
:101ad000bdc8bf00ea4f500011003600a0c0b300df
:101ae000bde8b700ecc8bf00e04f50000b003a0063
:101af00090c0b300ece8b700090037000040eb00ed
:101b0000bde8b700ecc8bf00e94f500004003a0040
:101b10000040eb00ece8b7000100370000000000d7
:101b2000ecc8bf00e04f50000200320020c0b300fc
:101b3000eae8b70091168000008020000080600075
:101b4000e00f500003003a0010c0b300ebe8b7000c
:101b5000040037000040eb00ebe8b70020c0b30002
:101b6000eae8b700eac8bf000080fb00e10f5000c0
:101b70006e003200e20f5000aa003200e00f500069
:101b80001c013a0096c8bf00e14f500004003a0023
:101b9000e0468000004788000040eb0096e8b70070
:101ba000c9c8bf00e04f50002f003a00104180002c
:101bb0006101b900a0468000b146800002004000eb
:101bc00083804800a0468800b1468800cac8bf008c
:101bd000e14f400021003a00a0468000b14680005d
:101be0004809dd004800de0000007100c808de0082
:101bf000000078007046880070468000712c270035
:101c0000008050001046880010c0b300c9e8b7003b
:101c10000040eb00cae8b7006000b800a0468800aa
:101c2000b146880071468000f0252300808f500067
:101c30000400360071468000005c2400808f500054
:101c400009003600ecc8bf00e04f500006003a0023
:101c5000a0c0b300ece8b70003003700cac8bf005b
:101c60000040e800cae8b70098c8bf00fd4f500028
:101c70000500360011c8bf00e14f500002003a00d5
:101c800010c0b300c5e8b7008189200091407800fa
:101c9000c0c3b30080cf5000d3003600e1448000c1
:101ca000d01c2000808f500011003600e1448000dd
:101cb000901d2000808f50000d003e00d01c2000a1
:101cc00080468800901d20009046880040c1b300e7
:101cd000c6e8b70060c1b300c8e8b70020c1b300d0
:101ce000c7e8b700c6c8bf00c4e8b7000c0037009b
:101cf0000021200080468800302520009046880082
:101d0000e0c1b300c6e8b70030c2b300c8e8b7000e
:101d100090c1b300c7e8b700c6c8bf00c4e8b700a9
:101d200010c0b300eae8b700b200370096c8bf00a1
:101d3000e14f500031003a00b8000700e146800052
:101d4000c0b22500808f50000d003600312a80007f
:101d500000c02f0080806000c02b20000080700039
:101d6000302a8800512a800000c02f008080600047
:101d7000c02b200000807000502a88001d00370012
:101d8000e1468000b0452400808f50000d003600f1
:101d9000312a800000c02f008080600020352000a4
:101da00000807000302a8800512a800000c02f0077
:101db000808060002035200000807000502a88005c
:101dc0000c003700312a800000c02f0080806000a6
:101dd000803e200000807000302a8800512a800058
:101de00000c02f0080806000803e200000807000d6
:101df000502a88000040eb0096e8b700d8c8bf0022
:101e0000e14f5000030036001f0107000040eb00c7
:101e1000d8e8b700d8c8bf000040e800d8e8b7004d
:101e2000740037002324a8002304a8004324a8003a
:101e30004304a8006324a8006304a800d402a900f6
:101e4000d5a2a9000040eb00dae8b7000040eb00a3
:101e5000c5e8b7000000eb00804488000040eb00bc
:101e60008ee8b7000000eb00704688000040eb00f1
:101e7000c9e8b700c02b2000104788000000eb0025
:101e8000204788000000eb00304788000060fe001b
:101e9000ebc8bf00e14f50000f003a00ecc8bf0094
:101ea000e04f50000c003a00604680000000e8005f
:101eb0006046880061468000f0702200808f5000ec
:101ec000040036000040eb00eae8b7000000eb0039
:101ed0006046880043003700ebc8bf00e14f500068
:101ee00036003a00ecc8bf00e04f5000330032002b
:101ef0000000eb0060468800ecc8bf0000404000d6
:101f0000b0e8b70013e1a800ecc8bf00ea4f5000ea
:101f100003003200ecc8bf00eb4f500002003a0053
:101f20000040eb00ece8b70000c8bf00e14f5000f4
:101f300021003a00b2c8bf00e04f50001e003a0036
:101f4000f04580000000e800f0458800f145800081
:101f500000e22400808f50001700360010c0b3004c
:101f6000b2e8b700ecc8bf00e54f50000e003a00e1
:101f7000202180003000b300202188002022800032
:101f80003000b3002022880021218000c0ff2f00f4
:101f9000008060002021880021228000c0ff2f00e7
:101fa00000806000202288000040eb00ece8b700d1
:101fb0000000eb00f04588000a003700ebc8bf00c6
:101fc000e04f50000a003a00d01c200080468800f4
:101fd000302520009046880013e1a900d582a90091
:101fe0000400370003003700000000000100370044
:101ff000000000000000eb003008880084e0a90029
:102000000080fa004f03be004f02be004f01be0029
:102010004f00be003600f900004006000600fa003e
:102020000000eb00100798000000eb00200798006c
:102030000040eb00004f7800204780002007980008
:10204000f046800080007800e04680000180b90002
:102050004109dd004f00de0000007100cf88de0086
:102060000000780020478800e1468000304780006b
:1020700000805000100798009e00900090da2f001a
:10208000808f500005003d00114780001047800000
:102090004200de00008050001047880001478000a9
:1020a000e0982f0080804000e0468000808f500044
:1020b00007003100dac8bf00e04f500004003a00ca
:1020c000104780002003b00010478800060037004a
:1020d00010c0b300dae8b7000040eb0000e8b7003a
:1020e0000040eb00b2e8b7008ec8bf00e14f5000df
:1020f00003003a0010c0b300004f78000200370020
:102100000040eb00004f7800214780002e00900037
:10211000808f5000240034001e009000e80f400023
:1021200004003d0010478000740040001047880004
:10213000440037001e009000e00f500004003d00f6
:10214000104780007e004000104788003d003700a7
:102150001e009000e80f5000080034001147800076
:102160001e4178000280fb00e20120000010dd002b
:102170000080500010478800320037001e00900099
:10218000e00f50002f003400114780001e417800fe
:102190000280fb00420120000010dd0000805000a2
:1021a0001047880027003700214780002e0090004c
:1021b000808f500023003d001e009000e80f40007b
:1021c00008003d00114780001e4178000280fb009e
:1021d000e20120000010dd00008050001047880060
:1021e000180037001e009000e00f500008003d006e
:1021f000114780001e4178000280fb004201200050
:102200000010dd0000805000104788000d003700ee
:102210001e009000e80f50000400340010478000ba
:102220007e00400010478800060037001e00900026
:10223000e00f50000300340010478000740040009d
:10224000104788001147800020458000808f500093
:102250000300360020458000104788000600370044
:1022600011478000b02b2000808f500002003e00fc
:10227000c02b200010478800e046800030478800cf
:102280000080fa00000006000600fa000000eb00e3
:10229000100798000000eb00200798000000eb00fa
:1022a000000f780081418000704180000080500064
:1022b000100798001e009000218520000180b900c1
:1022c0004109dd004f00de0000007100cf88de0014
:1022d000200798001e009000811420000180b900a2
:1022e0004109dd004f00de0000007100cf88de00f4
:1022f00080007800704780000080400070478800b0
:102300007147800080142000808f5000030034004b
:102310008014200070478800060037007147800055
:1023200080eb2f00808f500002003d0080eb2f00db
:102330007047880070478000ae009000008f40001a
:10234000801420009e007800808f5000030034002d
:1023500080142000000f78000600370080eb2f006b
:102360009e007800808f500002003d0080eb2f001f
:10237000000f78001e007800011e24000180b900c3
:102380004109dd004f00de0000007100cf88de0053
:1023900000007800404788000080fa000000060036
:1023a0000000fa008020a90001e4a900ffff370027
:1023b0000000fa008060a90001e4a900ffff3700d7
:1023c0000000fa008040a90001e4a900ffff3700e7
:1023d0000000fa008080a90001e4a900ffff370097
:1023e0000000fa008020a900ffff37000000fa007b
:1023f0008060a900ffff37000000fa008040a900bc
:10240000ffff37000000fa008080a900ffff3700bf
:082410000040da000000fe00ac
:020000040000fa
:0200000401f009
:04000c00f8ff0000f9
:020000040000fa
:0200000401f009
:040010005bff000092
:020000040000fa
:0200000401f009
:0400140064ff000085
:020000040000fa
:0200000401f009
:04001800ffff0000e6
:020000040000fa
:0200000401f009
:04001c00deff000003
:020000040000fa
:1000080008120000d0110000d8110000e011000013
:10001800e811000008120000081200000812000091
:100028000812000008120000081200000812000060
:10003800081200000812000008120000480b000017
:10004800c60a00000812000008120000081200008a
:100058000812000008120000081200000812000030
:100068000812000008120000081200000812000020
:100078000812000008120000081200000812000010
:100088000812000008120000081200000812000000
:1000980008120000081200000812000008120000f0
:1000a80008120000081200000812000008120000e0
:1000b80008120000081200000812000008120000d0
:1000c80008120000081200000812000008120000c0
:1000d80008120000081200000812000008120000b0
:1000e80008120000081200000812000008120000a0
:1000f8000812000008120000081200000812000090
:10010800081200000812000008120000081200007f
:10011800081200000812000008120000081200006f
:10012800081200000812000008120000081200005f
:10013800081200000812000008120000081200004f
:10014800081200000812000008120000081200003f
:10015800081200000812000008120000081200002f
:10016800081200000812000008120000081200001f
:10017800081200000812000008120000081200000f
:1001880008120000081200000812000008120000ff
:1001980008120000081200000812000008120000ef
:1001a80008120000081200000812000008120000df
:1001b8000812000008120000081200009002000057
:1001c800b4020000d8020000081200000812000063
:1001d80008120000081200000812000008120000af
:1001e800081200000a0300000812000008120000ac
:0801f8000812000008120000cb
:020000040000fa
:1002080008120000f0110000f6110000fc110000b7
:100218000212000008120000081200000812000074
:10022800081200000812000008120000081200005e
:10023800081200000812000008120000480b000015
:10024800c60a000008120000081200000812000088
:10025800081200000812000008120000081200002e
:10026800081200000812000008120000081200001e
:10027800081200000812000008120000081200000e
:1002880008120000081200000812000008120000fe
:1002980008120000081200000812000008120000ee
:1002a80008120000081200000812000008120000de
:1002b80008120000081200000812000008120000ce
:1002c80008120000081200000812000008120000be
:1002d80008120000081200000812000008120000ae
:1002e800081200000812000008120000081200009e
:1002f800081200000812000008120000081200008e
:10030800081200000812000008120000081200007d
:10031800081200000812000008120000081200006d
:10032800081200000812000008120000081200005d
:10033800081200000812000008120000081200004d
:10034800081200000812000008120000081200003d
:10035800081200000812000008120000081200002d
:10036800081200000812000008120000081200001d
:10037800081200000812000008120000081200000d
:1003880008120000081200000812000008120000fd
:1003980008120000081200000812000008120000ed
:1003a80008120000081200000812000008120000dd
:1003b8000812000008120000081200009002000055
:1003c800b4020000d8020000081200000812000061
:1003d80008120000081200000812000008120000ad
:1003e800081200000a0300000812000008120000aa
:0803f8000812000008120000c9
:020000040000fa
:102418000000000065000000c90000002e01000057
:1024280092010000f70100005b020000c0020000fa
:102438002403000089030000ed030000520400009b
:10244800b60400001b0500007f050000e30500003e
:1024580048060000ac0600001107000075070000e0
:10246800d90700003e080000a20800000609000085
:102478006a090000cf090000330a0000970a00002b
:10248800fb0a00005f0b0000c40b0000280c0000d2
:102498008c0c0000f00c0000540d0000b80d00007a
:1024a8001c0e0000800e0000e30e0000470f000025
:1024b800ab0f00000f10000072100000d6100000d3
:1024c8003a1100009d110000011200006412000082
:1024d800c81200002b1300008f130000f213000035
:1024e80055140000b91400001c1500007f150000e9
:1024f800e215000045160000a81600000b170000a2
:102508006e170000d017000033180000961800005e
:10251800f91800005b190000be190000201a00001d
:10252800821a0000e51a0000471b0000a91b0000e2
:102538000b1c00006d1c0000cf1c0000311d0000aa
:10254800931d0000f51d0000571e0000b81e000076
:102558001a1f00007b1f0000dd1f00003e20000046
:102568009f2000000021000061210000c22100001e
:102578002322000084220000e522000046230000f8
:10258800a62300000724000067240000c8240000d8
:102598002825000088250000e825000048260000be
:1025a800a82600000827000067270000c7270000aa
:1025b8002628000086280000e5280000442900009d
:1025c800a3290000022a0000612a0000c02a000096
:1025d8001f2b00007d2b0000dc2b00003a2c000094
:1025e800992c0000f72c0000552d0000b32d000099
:1025f800112e00006e2e0000cc2e00002a2f0000a5
:10260800872f0000e42f0000413000009e300000ba
:10261800fb30000058310000b531000011320000d5
:102628006e320000ca3200002633000083330000f7
:10263800df3300003a34000096340000f234000022
:102648004d350000a8350000043600005f36000054
:10265800ba360000153700006f370000ca3700008f
:10266800243800007e380000d938000033390000d3
:102678008c390000e6390000403a0000993a000021
:10268800f23a00004c3b0000a53b0000fe3b000076
:10269800563c0000af3c0000073d0000603d0000d4
:1026a800b83d0000103e0000683e0000bf3e00003c
:1026b800173f00006e3f0000c53f00001d400000ae
:1026c80073400000ca40000021410000774100002b
:1026d800ce410000244200007a420000d0420000af
:1026e800254300007b430000d04300002544000040
:1026f8007a440000cf4400002445000078450000db
:10270800cd4500002146000075460000c94600007e
:102718001c47000070470000c3470000164800002f
:1027280069480000bc4800000f49000061490000ea
:10273800b4490000064a0000584a0000a94a0000af
:10274800fb4a00004c4b00009d4b0000ee4b000084
:102758003f4c0000904c0000e04c0000314d000060
:10276800814d0000d14d0000204e0000704e000049
:10277800bf4e00000e4f00005d4f0000ac4f000040
:10278800fb4f00004950000097500000e550000042
:102798003351000081510000ce5100001b5200004f
:1027a80068520000b5520000025300004e5300006a
:1027b8009b530000e7530000325400007e54000091
:1027c800c95400001555000060550000aa550000c6
:1027d800f55500003f5600008a560000d356000009
:1027e8001d57000067570000b0570000f957000058
:1027f800425800008b580000d35800001c590000b4
:1028080064590000ac590000f35900003b5a00001d
:10281800825a0000c95a00000f5b0000565b000096
:102828009c5b0000e25b0000285c00006e5c00001e
:10283800b35c0000f95c00003e5d0000825d0000b2
:10284800c75d00000b5e00004f5e0000935e000055
:10285800d75e00001a5f00005d5f0000a05f000007
:10286800e35f00002560000068600000aa600000c7
:10287800eb6000002d6100006e610000af61000098
:10288800f06100003162000071620000b162000076
:10289800f16200003163000070630000af63000064
:1028a800ee6300002d6400006c640000aa64000060
:1028b800e86400002565000063650000a06500006d
:1028c800dd6500001a660000566600009366000089
:1028d800cf6600000a6700004667000081670000b5
:1028e800bc670000f7670000326800006c680000f1
:1028f800a6680000e068000019690000526900003d
:102908008b690000c4690000fd690000356a000099
:102918006d6a0000a46a0000dc6a0000136b000006
:102928004a6b0000816b0000b76b0000ed6b000084
:10293800236c0000596c00008e6c0000c36c000012
:10294800f86c00002d6d0000616d0000956d0000b1
:10295800c96d0000fd6d0000306e0000636e000060
:10296800966e0000c86e0000fb6e00002c6f000021
:102978005e6f0000906f0000c16f0000f26f0000f2
:10298800227000005370000083700000b2700000d5
:10299800e270000011710000407100006f710000ca
:1029a8009d710000cb710000f971000027720000d2
:1029b8005472000081720000ae720000db720000e9
:1029c80007730000337300005e7300008a73000011
:1029d800b5730000e07300000a740000357400004d
:1029e8005f74000088740000b2740000db7400009b
:1029f800047500002d750000557500007d750000f8
:102a0800a5750000cc750000f37500001a7600006b
:102a180041760000677600008d760000b3760000ee
:102a2800d8760000fe760000227700004777000085
:102a38006b7700008f770000b3770000d77700002e
:102a4800fa7700001d7800003f78000062780000e7
:102a580084780000a5780000c7780000e8780000b6
:102a680009790000297900004a7900006a79000094
:102a780089790000a9790000c8790000e67900008a
:102a8800057a0000237a0000417a00005f7a00008e
:102a98007c7a0000997a0000b67a0000d27a0000a9
:102aa800ee7a00000a7b0000267b0000417b0000d4
:102ab8005c7b0000777b0000917b0000ab7b000013
:102ac800c57b0000de7b0000f87b0000107c000066
:102ad800297c0000417c0000597c0000717c0000ca
:102ae800887c00009f7c0000b67c0000cd7c000044
:102af800e37c0000f97c00000e7d0000247d0000ce
:102b0800397d00004d7d0000627d0000767d00006b
:102b1800897d00009d7d0000b07d0000c37d000020
:102b2800d57d0000e87d0000fa7d00000b7e0000e6
:102b38001d7e00002e7e00003e7e00004f7e0000bd
:102b48005f7e00006f7e00007e7e00008d7e0000ac
:102b58009c7e0000ab7e0000b97e0000c77e0000ae
:102b6800d57e0000e27e0000ef7e0000fc7e0000c3
:102b7800097f0000157f0000217f00002c7f0000e6
:102b8800377f0000427f00004d7f0000577f000024
:102b9800617f00006b7f0000747f00007d7f000074
:102ba800867f00008f7f0000977f00009f7f0000d6
:102bb800a67f0000ad7f0000b47f0000bb7f00004f
:102bc800c17f0000c77f0000cd7f0000d27f0000da
:102bd800d87f0000dc7f0000e17f0000e57f000077
:102be800e97f0000ec7f0000f07f0000f37f000029
:102bf800f57f0000f77f0000f97f0000fb7f0000f1
:102c0800fd7f0000fe7f0000fe7f0000ff7f0000c8
:020000040000fa
:102c18000000fa0090022000303a8800213a800033
:102c2800f0f32f0000806000203a8800213a8000ed
:102c380000fe2f0000806000203a8800120020006b
:102c480080072000a1092000337420008049780003
:102c58008149780082497800120020006004200031
:102c6800710520002374200080497800814978008c
:102c78008249780000000000113a80000000270017
:102c88008080600000002100808f5000faff3a0029
:102c980000000000113a800000022000008060005f
:102ca800e00f5000fbff320050c7a80051a7a80052
:102cb800813a80000070200000807000803a88000f
:102cc80051e7a80000000000813a800000002400bd
:102cd80000806000e00f5000fbff32000080fa0027
:102ce800000006000000fa001120800080ff2f007d
:102cf8000080600010208800001e2400202088002a
:102d0800000f22004022880060092000602188000e
:102d180020032000502188006009200060228800dc
:102d280020032000502288000000eb00302188009a
:102d38000000eb00302288002124a9004124a900ca
:102d48002004a8004004a80001218000f0f32f000f
:102d5800008060000021880001218000f0f32f002e
:102d6800008060000021880011218000f03f2f00c2
:102d7800008060001021880011228000f03f2f00a1
:102d880000806000102288002384a8004384a800e3
:102d980023e4a80023c4a80043e4a80043c4a8006f
:102da80011218000f0f32f000080600010218800be
:102db8002324a8002304a80011228000f0f32f0088
:102dc80000806000102288004324a8004304a80063
:102dd800004f2c00d0218800004f2c00d022880002
:102de80021218000c0ff2f00008060002021880082
:102df8002504a80021218000f03f28008080600081
:102e08000040200000807000202188002524a900af
:102e180021228000c0ff2f0000806000202288004f
:102e28004504a80021228000f03f2800808060002f
:102e38000080200000807000202288004524a9001e
:102e4800a1218000f0ff200000806000a021880000
:102e5800a121800000fc2f0000806000a0218800d4
:102e6800a1228000f0ff200000806000a0228800de
:102e7800a122800000fc2f0000806000a0228800b2
:102e88008000200090218800800020009022880087
:102e98006124a800800721004023880080072100c2
:102ea80080238800402380000000d1003023880060
:102eb800802380000000d100702388000123800057
:102ec800000c20000080700000238800112380007f
:102ed800f03f2f00808060000040200000807000dc
:102ee8001023880063e4a80063c4a80011238000ad
:102ef800f0f32f0000806000102388006324a800ee
:102f08006304a800202380003000b3002023880039
:102f18000080fa00000006000000fa000183a80003
:102f28000103a90000e3a90000c3a90000a3a900a8
:102f38000083a8000118800080ff2f000080600037
:102f48000020a000001888000000eb00301888005e
:102f58000203a9000223a9000243a9000263a900f1
:102f680002c3a90002e3a9000343a9000363a9005f
:102f78005118800000fe2f00008060000020a00093
:102f88005018880051188000f00f2e0080806000d3
:102f980000502000008070005018880061188000e0
:102fa800f00f2e008080600000502000008070002c
:102fb8006018880071188000f00f2e008080600073
:102fc800005020000080700070188800e106800022
:102fd800f0f82f008080600000062000008070005c
:102fe800e00688009220a900a220a8000080fa002c
:102ff800000006000000fa00e135800000fc2f0008
:10300800808060000002200000807000e0358800a9
:10301800e1358000f00f2c00808060000010220055
:1030280000807000e03588008137800000fc2f00a8
:103038008080600080022000008070008037880057
:1030480081378000f00f2c00808060000090220003
:103058000080700080378800d182a900d582a9003d
:10306800d062a900d462a900d102a900d502a900a2
:10307800d002a900d402a900d1a2a900d5a2a90012
:10308800c462a900c482a900cd62a900cd82a900aa
:10309800cda2a900cdc2a9000080fa000000060058
:1030a8000000fa0081088000f0fc2f00008060001a
:1030b8008008880000fa2000600888003105800038
:1030c800f0ff28008080600000002400008070006d
:1030d8003005880084e0a90094e0a8000080fa0088
:1030e800000006000000fa0091088000000320009c
:1030f8000080700090088800b0712b00700888006c
:103108004105800080ff2f00008060005000b30060
:10311800400588008500a9009500a8000080fa00f5
:10312800000006000000fa0044a5a9004405a80014
:10313800212a8000f0f32f00808060000008200022
:1031480000807000202a8800312a800000c02f00eb
:1031580080806000c02b200000807000302a88002a
:1031680045e5a800b1068000000027000080700037
:10317800b006880090e0a900a0e0a80048a5a90032
:103188004805a800412a8000f0f32f0080806000e5
:103198000004200000807000402a8800512a800026
:1031a80000c02f0080806000c02b200000807000cd
:1031b800502a880049e5a800c00680007000b300c6
:1031c800c00688009100a900a100a8004ca5a9008c
:1031d8004c05a800612a8000f0f32f008080600071
:1031e8000008200000807000602a8800712a800092
:1031f80000c02f0080806000803e200000807000aa
:10320800702a88004de5a800c1068000000720004c
:1032180000807000c00688009120a900a120a800a5
:083228000080fa00000006001e
:020000040000fa
:1032300000080000b00000000200000000000000d4
:10324000000000000000000000000000000000007e
:10325000000400000000000000000000000000006a
:10326000000000000000000000000000000000005e
:10327000000000000000000000000000000000004e
:10328000000000000000000000000000000000003e
:10329000000000000000000000000000000000002e
:1032a000000000000000000000000000000000001e
:1032b000000000000000000000000000000000000e
:1032c00000000000000000000000000000000000fe
:1032d00000000000000000000000000000000000ee
:1032e00000000000000000000000000000000000de
:1032f00000000000000000000000000000000000ce
:1033000000000000000000000000000000000000bd
:1033100000000000000000000000000000000000ad
:103320000000000000000000b00800003e000000a7
:10333000020000000000000000000000000000008b
:1033400000000000000000000000000000002d0050
:10335000001e160025000000000000000000cd0047
:103360000153020000000000000000000000000007
:10337000000000000000bc0002000000000000008f
:103380000002000000000000ee0800000400000041
:08339000000000000000000035
:020000040000fa
:103398000000fa001efe070016ff0700defe070009
:1033a80001e3a8005fff07004efe07003cff07008f
:1033b8004cff070011e1a80001e4a80040a7a800fd
:1033c800000000000000000000000000fcff3700c3
:00000001FF
